:100000000C9471000C9499000C9499000C94990034
:100010000C9499000C9499000C9499000C940F0284
:100020000C9499000C9499000C9499000C949900EC
:100030000C9499000C9499000C9499000C949900DC
:100040000C94C5010C9499000C9499000C9499009F
:100050000C9499000C9499000C9499000C949900BC
:100060000C9499000C94990005A84CCDB2D44EB9CB
:100070003836A9020C50B9918688083CA6AAAA2A4B
:10008000BE000000803F00000000240027002A007E
:1000900000000000230026002900000000002500C9
:1000A00028002B00040404040404040402020202D5
:1000B000020203030303030301020408102040802B
:1000C00001020408102001020408102000000008AA
:1000D000000201000003040700000000000000000F
:1000E000E20411241FBECFEFD8E0DEBFCDBF24E075
:1000F000A8E0B1E001C01D92A731B207E1F711E01D
:10010000A0E0B1E0E2E4FEE002C005900D92A8306C
:10011000B107D9F710E0C1E7D0E004C02197FE0194
:100120000E94EB04C037D107C9F70E949D020C94CE
:100130001F070C940000EF920F931F93CF93DF9350
:1001400093E0592F561B941B392F317837FF03C08A
:1001500031503E6F3F5F44E0349F800D112461E0D9
:1001600070E001C0660F8A95EAF7A62F362F30950A
:10017000892F97FD8F5F8595082E000C990B66E0FF
:100180005602A0011124FC01E40FF51F65E0EE0FFB
:10019000FF1F6A95E1F7EF5EFE4FBC016E5F7F4F78
:1001A000640F751FB5E0660F771FBA95E1F76F5EB4
:1001B0007E4F0496840F951FC5E0880F991FCA953E
:1001C000E1F78F5E9E4F40E050E0B42FEF01C40F87
:1001D000D51F18814E1514F41A2B01C01323188350
:1001E000EB01C40FD51F1881B01714F41A2B01C0EE
:1001F00013231883EC01C40FD51FB2171CF4B88168
:10020000BA2B02C0B881B323B8834F5F5F4F40322F
:100210005105D9F6DF91CF911F910F91EF9008957D
:10022000833081F028F4813099F08230A1F0089574
:100230008730A9F08830B9F08430D1F48091800003
:100240008F7D03C0809180008F7780938000089518
:1002500084B58F7702C084B58F7D84BD0895809169
:10026000B0008F7703C08091B0008F7D8093B00085
:1002700008951F93CF93DF93E9EDF0E09491E5ECBF
:10028000F0E0D491E1EBF0E0C491CC23D9F0182F49
:10029000992319F0892F0E941001EC2FF0E0EE0F46
:1002A000FF1FE656FF4FA591B4918FB7F894111137
:1002B00005C09C91ED2FE095E92302C0EC91ED2B58
:1002C000EC938FBFDF91CF911F9108953FB7F894C2
:1002D00080910D0190910E01A0910F01B09110013C
:1002E00026B5A89B05C02F3F19F00196A11DB11D91
:1002F0003FBFBA2FA92F982F8827820F911DA11DCC
:10030000B11DBC01CD0142E0660F771F881F991F08
:100310004A95D1F708958F929F92AF92BF92CF9254
:10032000DF92EF92FF926B017C010E9466014B010C
:100330005C01C114D104E104F104F1F00E946601F2
:10034000DC01CB0188199909AA09BB09883E9340B1
:10035000A105B10570F321E0C21AD108E108F10846
:1003600088EE880E83E0981EA11CB11CC114D10434
:10037000E104F10419F7DDCFFF90EF90DF90CF900B
:10038000BF90AF909F908F9008951F920F920FB6DD
:100390000F9211242F933F938F939F93AF93BF930B
:1003A0008091090190910A01A0910B01B0910C017B
:1003B0003091080123E0230F2D3720F40196A11D71
:1003C000B11D05C026E8230F0296A11DB11D209383
:1003D00008018093090190930A01A0930B01B09347
:1003E0000C0180910D0190910E01A0910F01B0912F
:1003F00010010196A11DB11D80930D0190930E0176
:10040000A0930F01B0931001BF91AF919F918F9175
:100410003F912F910F900FBE0F901F9018951F9234
:100420000F920FB60F9211242F933F934F935F9328
:100430006F937F938F939F93AF93BF93CF93EF93DC
:10044000FF93449A88B1807F88B940E050E0A6E0ED
:1004500085B19A01220F331F220F331F2C71837E27
:10046000822B85B9BBB12091110430911204A29F57
:10047000F001A39FF00D1124E40FF51F65E0EE0FCE
:10048000FF1F6A95E1F78091130490911404E80F1F
:10049000F91FEF5EFE4F7081C4E07C9FB001112414
:1004A0007B2F7370672B6BB965B1708172957695F0
:1004B000769573706C7F672B65B94F5F5F4F4630E1
:1004C000510531F645B1437E45B9449841E050E0CD
:1004D0000090110402C0440F551F0A94E2F748B976
:1004E0002F5F3F4F243031052CF4309312042093BA
:1004F000110411C01092120410921104019680325E
:1005000091052CF4909314048093130404C010926A
:10051000140410921304FF91EF91CF91BF91AF910A
:100520009F918F917F916F915F914F913F912F910B
:100530000F900FBE0F901F901895CF93DF93CDB7FC
:10054000DEB72F970FB6F894DEBF0FBECDBF7894FD
:1005500084B5826084BD84B5816084BD85B58260C8
:1005600085BD85B5816085BD80916E008160809379
:100570006E001092810080918100826080938100E2
:1005800080918100816080938100809180008160F2
:10059000809380008091B10084608093B10080914D
:1005A000B00081608093B00080917A008460809375
:1005B0007A0080917A00826080937A0080917A003C
:1005C000816080937A0080917A00806880937A00BD
:1005D0001092C10022E030E0F901E854FF4F44914D
:1005E000F901EC55FF4F8491882399F090E0880F32
:1005F000991FFC01EA57FF4FA591B491FC01E65603
:10060000FF4F859194918FB7F894EC91E42BEC9384
:100610008FBF2F5F3F4F2D303105F1F68FEF87B938
:1006200018B81092B0001092B1008091B0008260B2
:100630008093B00084E08093B3001092B200809168
:10064000B10086608093B1008091700082608093D9
:10065000700020E030E080E090E040E050E0BC013D
:10066000620F731FFA01E60FF71FEF5EFE4F108255
:100670004F5F5F4F40325105A9F780549F4F81155E
:1006800043E0940751F7205E3F4F203C310519F7B6
:1006900020E030E080E090E040E050E0BC01620FFC
:1006A000731FFA01E60FF71FEF5EFE4F10824F5FD8
:1006B0005F4F40325105A9F78096803C910561F764
:1006C00020543F4F211563E0360721F766246394D9
:1006D000712CEFEDF0E08491EBECF0E01491E7EB9E
:1006E000F0E00491002309F45AC181110E94100125
:1006F000E02FF0E0EE0FFF1FE057FF4FA591B49100
:100700008C91812309F44BC1C12CD12CB6010D2C45
:10071000000C880B990B0E9496052BED3FE049ECED
:1007200050E40E94220620E030E040E85DE30E94B1
:1007300022064B015C0120E030E0A9010E94F20496
:100740000E948F0623EC35EF48EA51E40E9422060E
:100750002DEC3CEC4CE451E40E94F2040E945E0556
:1007600069837A838B839C8322E93AE046E050E4F4
:10077000C501B4010E94F2040E948F0623EC35EFFC
:1007800048EA51E40E9422062DEC3CEC4CE451E492
:100790000E94F2040E945E051B012C0122E93AE04E
:1007A00046E850E4C501B4010E94F2040E948F069D
:1007B00023EC35EF48EA51E40E9422062DEC3CEC94
:1007C0004CE451E40E94F2040E945E0589809A8004
:1007D00097FE02C0812C912C210137FE02C0412CD2
:1007E000512C1B0177FF02C0212C312C13E093E028
:1007F000911B9A87A6E01A9F5001112420EC129FAA
:10080000F0011124FC87EB871F861E86FE84C3013E
:100810000F2C01C0880F0A94EAF7782F709579871A
:1008200030E0333009F472C022E0231B822F85951B
:10083000082E000C990B21702D831E824D815E8144
:10084000440F551F440F551F6E857F85460F571F58
:10085000F30102C0EE0FFF1F4A95E2F7AC014A0D0B
:100860005B1DBA0145E0660F771F4A95E1F778876F
:100870006F83AC014E5F5F4F4A0D5B1DBA0155E0BF
:10088000660F771F5A95E1F77A83698304968A0D7C
:100890009B1D65E0880F991F6A95E1F740E050E0E5
:1008A00000E0E12C20E0AF81B885A40FB51FAF5E5A
:1008B000BE4F6C9170E06E237F23672B09F0E394A9
:1008C000A981BA81A40FB51FAF5EBE4F6C9170E0D5
:1008D0006E237F23672B09F00F5FDA01A80FB91F82
:1008E000AF5EBE4F6C9170E06E237F23672B09F0E3
:1008F0002F5F4F5F5F4F40325105A9F6432F6A8546
:100900008F2D3D870E949B003D851AC040E050E03E
:100910006B857C85640F751F80E090E0FC01E60F1D
:10092000F71FEF5EFE4F2081A9852A2320830196C1
:100930008032910599F7405C5F4F403C510541F78B
:100940003F5F343009F06DCFEE85FF853196FF872C
:10095000EE87349709F05ACF115008F048CFF12CA8
:1009600010E0E22C042D282D43E0612F8F2D0E94F2
:100970009B001F5F1430A9F7F39444E0F412F0CF0A
:1009800068EE73E080E090E00E948B016FEFC61A82
:10099000D60A70E1C716D10409F0B8CE9ACE81E02C
:1009A0000E94390164EF71E080E090E00E948B01C9
:1009B00080E00E94390164EF71E080E090E00E94E5
:1009C0008B0187CE1092120410921104109214041D
:1009D000109213040895EE0FFF1F0590F491E02D7F
:1009E00009945058BB27AA270E9409050C94E805D2
:1009F0000E94DA0538F00E94E10520F039F49F3FAB
:100A000019F426F40C94D7050EF4E095E7FB0C944A
:100A1000D105E92F0E94F90558F3BA176207730749
:100A20008407950720F079F4A6F50C941B060EF4C4
:100A3000E0950B2EBA2FA02D0B01B90190010C01EE
:100A4000CA01A0011124FF27591B99F0593F50F406
:100A5000503E68F11A16F040A22F232F342F44275E
:100A6000585FF3CF469537952795A795F040539556
:100A7000C9F77EF41F16BA0B620B730B840BBAF026
:100A80009150A1F0FF0FBB1F661F771F881FC2F791
:100A90000EC0BA0F621F731F841F48F487957795A5
:100AA0006795B795F7959E3F08F0B0CF9395880F5F
:100AB00008F09927EE0F9795879508950E94650590
:100AC0006894B1110C941C0608950E94010688F0E8
:100AD0009F5798F0B92F9927B751B0F0E1F0660F02
:100AE000771F881F991F1AF0BA95C9F714C0B13043
:100AF00091F00E941B06B1E008950C941B06672F2D
:100B0000782F8827B85F39F0B93FCCF38695779571
:100B10006795B395D9F73EF490958095709561955A
:100B20007F4F8F4F9F4F0895E89409C097FB3EF485
:100B300090958095709561957F4F8F4F9F4F99232A
:100B4000A9F0F92F96E9BB279395F69587957795A8
:100B50006795B795F111F8CFFAF4BB0F11F460FF68
:100B60001BC06F5F7F4F8F4F9F4F16C0882311F0C0
:100B700096E911C0772321F09EE8872F762F05C0D4
:100B8000662371F096E8862F70E060E02AF09A956F
:100B9000660F771F881FDAF7880F9695879597F964
:100BA000089597F99F6780E870E060E008959FEFEF
:100BB00080EC089500240A941616170618060906F4
:100BC000089500240A9412161306140605060895C3
:100BD000092E0394000C11F4882352F0BB0F40F44B
:100BE000BF2B11F460FF04C06F5F7F4F8F4F9F4F8B
:100BF000089557FD9058440F551F59F05F3F71F00D
:100C00004795880F97FB991F61F09F3F79F0879573
:100C10000895121613061406551FF2CF4695F1DFFC
:100C200008C0161617061806991FF1CF869571058C
:100C3000610508940895E894BB2766277727CB01C0
:100C400097F908950E9435060C94E8050E94DA058C
:100C500038F00E94E10520F0952311F00C94D105A5
:100C60000C94D70511240C941C060E94F90570F30E
:100C7000959FC1F3950F50E0551F629FF001729F41
:100C8000BB27F00DB11D639FAA27F00DB11DAA1F50
:100C9000649F6627B00DA11D661F829F2227B00D9D
:100CA000A11D621F739FB00DA11D621F839FA00D28
:100CB000611D221F749F3327A00D611D231F849F78
:100CC000600D211D822F762F6A2F11249F575040CF
:100CD0009AF0F1F088234AF0EE0FFF1FBB1F661F4A
:100CE000771F881F91505040A9F79E3F510580F013
:100CF0000C94D1050C941C065F3FE4F3983ED4F3AA
:100D0000869577956795B795F795E7959F5FC1F7B6
:100D1000FE2B880F911D9695879597F908959F93BF
:100D20000E9499060F9007FCEE5F0C94C2060C948B
:100D3000D7050E940106D8F3E894E0E0BB279F574F
:100D4000F0F02AED3FE049EC06C0EE0FBB0F661F46
:100D5000771F881F28F0B23A62077307840728F0CC
:100D6000B25A620B730B840BE3959A9572F7803835
:100D700030F49A95BB0F661F771F881FD2F79048F3
:100D80000C94D806EF93E0FF07C0A2EA2AED3FE0FB
:100D900049EC5FEB0E9409050E94E8050F9003945F
:100DA00001FC9058E8E6F0E00C94E4069F3F31F037
:100DB000915020F4879577956795B795880F911D89
:100DC0009695879597F908959F938F937F936F9347
:100DD000FF93EF939B01AC010E942206EF91FF91DC
:100DE0000E94F8062F913F914F915F910C9422063B
:100DF000DF93CF931F930F93FF92EF92DF927B01CC
:100E00008C01689406C0DA2EEF010E943506FE01BF
:100E1000E894A5912591359145915591A6F3EF015F
:100E20000E940905FE019701A801DA9469F7DF9095
:100E3000EF90FF900F911F91CF91DF910895F8945B
:020E4000FFCFE2
:080E42000100000001000000A6
:00000001FF
