:100000000C9463000C948B000C948B000C948B006C
:100010000C948B000C948B000C948B000C9491002E
:100020000C948B000C948B000C948B000C948B0024
:100030000C948B000C948B000C948B000C948B0014
:100040000C948F020C948B000C948B000C948B00FE
:100050000C948B000C948B000C948B000C948B00F4
:100060000C948B000C948B0005A84CCDB2D44EB9E7
:100070003836A9020C50B9918688083CA6AAAA2A4B
:10008000BE000000803F01020408102040800102F1
:1000900004081020010204081020040404040404CD
:1000A000040402020202020203030303030300002A
:1000B0000000250028002B0000000000240027007D
:1000C0002A00C200C60011241FBECFEFD8E0DEBF59
:1000D000CDBF22E0A8E0B1E001C01D92A733B20776
:1000E000E1F711E0A0E0B1E0E0EBFBE002C0059039
:1000F0000D92A830B107D9F710E0C4ECD0E004C0ED
:100100002297FE010E94C705C23CD107C9F70E9491
:10011000AB030C94CB050C94000088E091E00C94A8
:10012000D4001F920F920FB60F9211242F933F937A
:100130004F935F936F937F938F939F93AF93BF93EF
:10014000EF93FF9388E091E00E942701FF91EF91E8
:10015000BF91AF919F918F917F916F915F914F91DF
:100160003F912F910F900FBE0F901F90189588E030
:1001700091E00E94BB0164E670E088E091E00E949B
:10018000D901F9CF88E091E00C94CA0088E091E0B1
:100190000C94D300FC01E05EFE4F11821082329677
:1001A00011821082089508950F931F93CF93DF93C8
:1001B0001F92CDB7DEB7082F10E061E0812F998341
:1001C0000E9471031F5F99811D30B9F78FEF87B9C6
:1001D00018B81092B0001092B1002091B0002260C7
:1001E0002093B00084E18093B3001092B20020917C
:1001F000B10026602093B10020917000226020930E
:100200007000202F392FB901685B7F4F80E090E0AC
:1002100040E050E0FC01E20FF31FDF01A40FB51F27
:100220001C924F5F5F4F4C305105B9F7885B9F4F71
:10023000803241E0940761F7245F3F4F261737076C
:1002400029F70F90DF91CF911F910F910895CF93D0
:10025000DF9315B82B9A20E030E0DC01A05EBE4FA2
:1002600078E46CE0EC01CE5DDE4F48B1487F422B74
:1002700048B94D915C911197749FF001759FF00DF5
:100280001124629FA001639F500D1124E40FF51FFC
:10029000E80FF91F48815981E40FF51F40814BB9E0
:1002A0002F5F3F4F2630310501F72B9821E028B909
:1002B0008D919C911197009711F482E004C08130D8
:1002C000910519F484E085B908C08230910511F4D4
:1002D00088E0F9CF039709F425B98D919C91119786
:1002E000019611969C938E9304975CF01D921C923C
:1002F000888199810196998388830C9714F01982DB
:100300001882DF91CF910895CC9674E05FEFFC01E5
:1003100030E0DF01DC97321714F01C9201C05C93CF
:10032000DF019497341714F01C9201C05C93DF0135
:100330001C97361714F01C9201C05C93DF01D09714
:10034000321714F45C9301C01C92DF0158973417E4
:1003500014F45C9301C01C92361714F4508301C04E
:1003600010823F5F31963C30A1F67150885B9F4F01
:100370007111CDCF0895BC01605E7E4F20E030E06A
:1003800040E050E0F901E80FF91FDF01A40FB51FAD
:100390001C924F5F5F4F4C305105B9F7245F3F4FC0
:1003A0002834310569F7885B9F4F8617970731F727
:1003B00008952F923F924F925F926F927F928F9209
:1003C0009F92AF92BF92CF92DF92EF92FF920F93E4
:1003D0001F93CF93DF9300D000D0CDB7DEB78C0151
:1003E000212C312C4B01AA2497FCA094BA2CB101EA
:1003F000882777FD8095982F0E9453042BED3FE0CE
:1004000049EC50E40E943D0520E030E040E85CE328
:100410000E943D056B017C0120E030E0A9010E94B3
:10042000BC030E94A00524EA30E74DEF50E40E948F
:100430003D052AE939E949E950E40E94BC030E94DC
:10044000200469837A838B839C8322E93AE046E027
:1004500050E4C701B6010E94BC030E94A00524EA33
:1004600030E74DEF50E40E943D052AE939E949E9BA
:1004700050E40E94BC030E9420042B013C0122E9AD
:100480003AE046E850E4C701B6010E94BC030E946E
:10049000A00524EA30E74DEF50E40E943D052AE92B
:1004A00039E949E950E40E94BC030E9420046B0131
:1004B0007C01C501B4010E94FC029601D7FE02C076
:1004C00020E030E0A20157FE02C040E050E0698128
:1004D0007A8177FF02C060E070E0C8010E94840169
:1004E0008FEF281A380AE0E42E16310409F07FCF86
:1004F0000F900F900F900F90DF91CF911F910F9160
:10050000FF90EF90DF90CF90BF90AF909F908F9033
:100510007F906F905F904F903F902F9008951F9223
:100520000F920FB60F9211242F933F938F939F93A7
:10053000AF93BF9380912F0290913002A09131022E
:10054000B091320230912E0223E0230F2D3720F498
:100550000196A11DB11D05C026E8230F0296A11D1D
:10056000B11D20932E0280932F0290933002A0930E
:100570003102B09332028091330290913402A09103
:100580003502B09136020196A11DB11D8093330250
:1005900090933402A0933502B0933602BF91AF918D
:1005A0009F918F913F912F910F900FBE0F901F90B1
:1005B00018953FB7F8948091330290913402A0913E
:1005C0003502B091360226B5A89B05C02F3F19F021
:1005D0000196A11DB11D3FBF6627782F892F9A2F45
:1005E000620F711D811D911D42E0660F771F881FEC
:1005F000991F4A95D1F708958F929F92AF92BF921B
:10060000CF92DF92EF92FF926B017C010E94D902A0
:100610004B015C01C114D104E104F104F1F00E942A
:10062000BA030E94D902681979098A099B09683EB0
:1006300073408105910570F321E0C21AD108E108E9
:10064000F10888EE880E83E0981EA11CB11CC1142D
:10065000D104E104F10429F7DDCFFF90EF90DF90A2
:10066000CF90BF90AF909F908F900895789484B56D
:10067000826084BD84B5816084BD85B5826085BD9E
:1006800085B5816085BDEEE6F0E080818160808384
:10069000E1E8F0E010828081826080838081816067
:1006A0008083E0E8F0E0808181608083E1EBF0E02E
:1006B000808184608083E0EBF0E0808181608083D2
:1006C000EAE7F0E0808184608083808182608083BB
:1006D0008081816080838081806880831092C100E6
:1006E0000895CF93DF9390E0FC01EA57FF4F2491E8
:1006F000FC01E656FF4F8491882349F190E0880F72
:10070000991FFC01E854FF4FA591B49182559F4F6A
:10071000FC01C591D4919FB7611108C0F8948C91E8
:10072000209582238C93888182230AC0623051F401
:10073000F8948C91322F309583238C938881822B6F
:10074000888304C0F8948C91822B8C939FBFDF9197
:10075000CF91089508950E9436030E94AA030E9433
:100760008D00C0E0D0E00E94B7002097E1F30E9426
:100770000000F9CF08955058BB27AA270ED032C1E8
:10078000FBD030F000D120F031F49F3F11F41EF483
:10079000CBC00EF4E095E7FBC1C0E92F45D180F353
:1007A000BA17620773078407950718F071F49EF56E
:1007B0005DC10EF4E0950B2EBA2FA02D0B01B901EF
:1007C00090010C01CA01A0011124FF27591B99F0C7
:1007D000593F50F4503E68F11A16F040A22F232FD3
:1007E000342F4427585FF3CF469537952795A79523
:1007F000F0405395C9F77EF41F16BA0B620B730BCA
:10080000840BBAF09150A1F0FF0FBB1F661F771F3A
:10081000881FC2F70EC0BA0F621F731F841F48F4EF
:10082000879577956795B795F7959E3F08F0B3CF75
:100830009395880F08F09927EE0F9795879508955F
:1008400004D06894B11113C10895F6D088F09F5771
:1008500090F0B92F9927B751A0F0D1F0660F771F0C
:10086000881F991F1AF0BA95C9F712C0B13081F0EC
:10087000FDD0B1E00895FAC0672F782F8827B85FC0
:1008800039F0B93FCCF3869577956795B395D9F74D
:100890003EF490958095709561957F4F8F4F9F4F57
:1008A0000895E89409C097FB3EF490958095709563
:1008B00061957F4F8F4F9F4F9923A9F0F92F96E9AC
:1008C000BB279395F695879577956795B795F11121
:1008D000F8CFFAF4BB0F11F460FF1BC06F5F7F4FBE
:1008E0008F4F9F4F16C0882311F096E911C07723D0
:1008F00021F09EE8872F762F05C0662371F096E8D9
:10090000862F70E060E02AF09A95660F771F881FA7
:10091000DAF7880F9695879597F9089597F99F6765
:1009200080E870E060E008959FEF80EC0895DF9329
:10093000CF931F930F93FF92EF92DF927B018C0175
:10094000689405C0DA2EEF01A4D0FE01E894A591C9
:100950002591359145915591AEF3EF011EDFFE01D2
:100960009701A801DA9479F7DF90EF90FF900F914B
:100970001F91CF91DF91089500240A94161617064F
:1009800018060906089500240A9412161306140680
:1009900005060895C9CF50D0E8F3E894E0E0BB27FE
:1009A0009F57F0F02AED3FE049EC06C0EE0FBB0F79
:1009B000661F771F881F28F0B23A62077307840703
:1009C00028F0B25A620B730B840BE3959A9572F779
:1009D000803830F49A95BB0F661F771F881FD2F7B7
:1009E0009048B6C0092E0394000C11F4882352F0ED
:1009F000BB0F40F4BF2B11F460FF04C06F5F7F4F4B
:100A00008F4F9F4F0895EF93E0FF06C0A2EA2AEDB3
:100A10003FE049EC5FEBC1DEE5DF0F90039401FCA2
:100A20009058E8E6F0E0A0C057FD9058440F551FDD
:100A300059F05F3F71F04795880F97FB991F61F060
:100A40009F3F79F087950895121613061406551FD7
:100A5000F2CF4695F1DF08C0161617061806991F43
:100A6000F1CF86957105610508940895E894BB2738
:100A700066277727CB0197F908950BD0B3CF7CDF9A
:100A800028F081DF18F0952309F048CF4DCF1124CD
:100A9000EECFCADFA0F3959FD1F3950F50E0551F1D
:100AA000629FF001729FBB27F00DB11D639FAA27C3
:100AB000F00DB11DAA1F649F6627B00DA11D661F12
:100AC000829F2227B00DA11D621F739FB00DA11D33
:100AD000621F839FA00D611D221F749F3327A00DED
:100AE000611D231F849F600D211D822F762F6A2F89
:100AF00011249F5750408AF0E1F088234AF0EE0F0E
:100B0000FF1FBB1F661F771F881F91505040A9F71A
:100B10009E3F510570F002CFAACF5F3FECF3983EA5
:100B2000DCF3869577956795B795F795E7959F5F81
:100B3000C1F7FE2B880F911D9695879597F908951B
:100B40009F9329DF0F9007FCEE5F5DCF9F3F31F051
:100B5000915020F4879577956795B795880F911DEB
:100B60009695879597F908959F938F937F936F93A9
:100B7000FF93EF939B01AC0180DFEF91FF91D7DEF4
:100B80002F913F914F915F9178CFEE0FFF1F05900E
:100B9000F491E02D099410E0C4ECD0E004C0FE0113
:100BA0000E94C7052296C63CD107C9F7F894FFCF2B
:080BB00001000000010000003B
:00000001FF
