:100000000C9454000C947C000C947C000C947C00A8
:100010000C947C000C947C000C947C000C9482006A
:100020000C947C000C947C000C947C000C947C0060
:100030000C947C000C947C000C947C000C947C0050
:100040000C94A2040C947C000C947C000C947C0016
:100050000C947C000C947C000C947C000C947C0030
:100060000C947C000C947C00010204081020408059
:1000700001020408102001020408102004040404F2
:100080000404040402020202020203030303030342
:1000900000000000250028002B00000000002400C4
:1000A00027002A00B500B90011241FBECFEFD8E009
:1000B000DEBFCDBF21E0A8E0B1E001C01D92A73DA9
:1000C000B207E1F711E0A0E0B1E0E4E9FDE002C031
:1000D00005900D92A830B107D9F710E0C6EAD0E03C
:1000E00004C02297FE010E944406C43AD107C9F712
:1000F0000E94BE050C94BD060C94000088E091E0BF
:100100000C94C7001F920F920FB60F9211242F93D9
:100110003F934F935F936F937F938F939F93AF938F
:10012000BF93EF93FF9388E091E00E941801FF9145
:10013000EF91BF91AF919F918F917F916F915F915F
:100140004F913F912F910F900FBE0F901F901895D8
:1001500088E091E00E948B0244E650E06AE070E0A3
:1001600088E091E00E942104F7CF88E091E00C94B0
:10017000BD0088E091E00C94C600FC01E054FF4F04
:1001800011821082329611821082089508950F9381
:100190001F93CF93DF931F92CDB7DEB7082F10E0E8
:1001A00061E0812F99830E9484051F5F99811D3032
:1001B000B9F78FEF87B918B81092B0001092B1005C
:1001C0002091B00022602093B00084E18093B300BE
:1001D0001092B2002091B10026602093B1002091CE
:1001E0007000226020937000202F392FB901605DCC
:1001F0007F4F80E090E040E050E0FC01E20FF31F11
:10020000DF01A40FB51F1C924F5F5F4F48305105AF
:10021000B9F7C096803C910571F7285F3F4F2617CC
:10022000370739F70F90DF91CF911F910F91089504
:10023000CF93DF9315B82B9A20E030E0DC01A05477
:10024000BF4F66E0EC01CE53DF4F48B1487F422BF1
:1002500048B94D915C911197649FF001659FF00D35
:100260001124E20FF31F43E0EE0FFF1F4A95E1F761
:1002700048815981E40FF51FE80FF91F40814BB900
:100280002F5F3F4F2630310501F72B9821E028B929
:100290008D919C911197009711F482E004C08130F8
:1002A000910519F484E085B908C08230910511F4F4
:1002B00088E0F9CF039709F425B98D919C911197A6
:1002C000019611969C938E9304975CF01D921C925C
:1002D00088819981019699838883089714F01982FF
:1002E0001882DF91CF910895CF92EF92FF920F93F2
:1002F0001F93CF93DF9333E0E32FE41B321B232FB5
:10030000611103C0632F609503C0613011F4632F46
:100310006170422F27FF02C041E0420F45955527EB
:1003200047FD5095217827FF03C021502E6F2F5F86
:1003300034E0239F600D112421E030E001C0220F42
:100340006A95EAF7322F2095BA016C5F7F4FDB0187
:10035000C6E0EC02A00DB11D1124FD01A3E0EE0FDB
:10036000FF1FAA95E1F7E80FF91FEA01B3E0CC0FF0
:10037000DD1FBA95E1F718EF1603C001179F900D26
:1003800011244E5F5F4F13E0440F551F1A95E1F79C
:10039000A3E0660F771FAA95E1F710E0DF01AC0F2D
:1003A000BD1FA80FB91FFC901C1514F4F32A01C03F
:1003B000F222FC92DF01A40FB51FA80FB91FFC9019
:1003C0001E1514F4F32A01C0F222FC92101724F433
:1003D000A081A32BA08308C0DF01A60FB71FA80F21
:1003E000B91FFC90F222FC921F5F31961830B1F6D3
:1003F000DF91CF911F910F91FF90EF90CF900895D3
:10040000CF92DF92EF92FF920F931F93CF93DF93E0
:10041000E80133E0A32FA41B432F421B611103C04B
:10042000642F609503C0613011F4642F6170242F34
:1004300047FF02C021E0240F2595332727FD309583
:10044000417847FF03C041504E6F4F5F54E0459FD6
:10045000600D1124E1E0F0E002C0EE0FFF1F6A958D
:10046000E2F746E0A402D0011124BD01620F731F20
:1004700013E0660F771F1A95E1F7680F791FA9013E
:100480004E5F5F4F4A0F5B1F03E0440F551F0A95F5
:10049000E1F7480F591F2C5F3F4F2A0F3B1FA3E086
:1004A000220F331FAA95E1F7280F391F80E090E053
:1004B000DB01A80FB91FAC91B0E0AE23BF23AB2B7B
:1004C00021F0D6011C911F5F1C93DA01A80FB91F00
:1004D000AC91B0E0AE23BF23AB2B21F0D7011C9130
:1004E0001F5F1C93D901A80FB91FAC91B0E0AE23D8
:1004F000BF23AB2B19F0A881AF5FA883019688308A
:100500009105B1F6DF91CF911F910F91FF90EF9080
:10051000DF90CF900895BC0160547F4F20E030E021
:1005200040E050E0F901E80FF91FDF01A40FB51F0B
:100530001C924F5F5F4F48305105B9F7285F3F4F1E
:100540002033310569F7C0968617970739F7089564
:10055000E3E07E2F741BE21B611103C0672F6095DF
:1005600003C0613011F4672F61703E2F317837FF7F
:1005700003C031503E6F3F5F24E0329F600D112475
:1005800041E050E0062E01C0440F0A94EAF7B42F70
:10059000B09546E07402900111245E2FE7FD5F5F85
:1005A0005595250F311D57FD3A9543E0220F331F16
:1005B0004A95E1F7280F391F40E050E0BA01620F79
:1005C000731F80E090E0FB01E80FF91FA081AB23CF
:1005D000A083019688309105B1F7405F5F4F4033AB
:1005E000510561F708953F924F925F926F927F920B
:1005F0008F929F92AF92BF92CF92DF92EF92FF9233
:100600000F931F93CF93DF93CDB7DEB7E2970FB66B
:10061000F894DEBF0FBECDBF5C014A01613009F026
:1006200060C0612C72E0372E712C512C1AAA19AAC5
:10063000198244244394450C81E088169104F9F40E
:1006400093E05916C1F0632D6519FE0131966F01D3
:10065000CE01C1967C018E010E5C1F4F262D472DC9
:10066000C5010E94000263E06519C980E9A80AA9D2
:10067000262D472D20C0262D472D60E023C09FEF5B
:100680008916990611F5E3E05E16C9F0CE010196D0
:100690006C01FE01F1967F018E010E5C1F4F262D2D
:1006A000472D642DC5010E940002C980E9A80AA94E
:1006B000262D472D652DC5010E94740106C0262DEB
:1006C000472D63E0C5010E94A802542CF4E04F12AC
:1006D000ADCF73947F12A9CF639484E06812A4CF46
:1006E00098C06230C1F59E012F5F3F4F80E3F90152
:1006F00011928A95E9F7D501C50180579F4F10E007
:10070000782E692E00E3BD01605D7F4FAC01405340
:100710005109F1E08F16910441F4133021F4F901ED
:10072000A72DB62D0DC0FB010BC0EFEF8E169E0658
:1007300061F4133019F4F901D50102C0FA01DC01AA
:10074000802F01900D928A95E1F71F5FDB01CA01AE
:100750001430C9F65EC0633009F05BC0612C62E002
:10076000362E712C512C1AAA19AA198244244394AA
:10077000450CF1E08F169104D9F483E05816B1F0DE
:10078000232D2519FE0131966F01CE01C1967C0102
:100790008E010E5C1F4F462D672DC5010E94000281
:1007A00023E02519C980E9A80AA91CC020E021C0BE
:1007B0009FEF8916990611F5E3E05E16C9F0CE01A8
:1007C00001966C01FE01F1967F018E010E5C1F4FB8
:1007D000242D462D672DC5010E940002C980E9A87D
:1007E0000AA9252D462D672DC5010E94740106C05A
:1007F00023E0462D672DC5010E94A802542CF4E089
:100800004F12B1CF73947F12ADCF639484E068121E
:10081000A8CFE2960FB6F894DEBF0FBECDBFDF9132
:10082000CF911F910F91FF90EF90DF90CF90BF90ED
:10083000AF909F908F907F906F905F904F903F9080
:1008400008952F923F924F925F926F927F928F9274
:100850009F92AF92BF92CF92EF92FF920F931F930E
:10086000CF93DF9300D000D000D0CDB7DEB73C01EE
:100870001B011E821D82E4E0AE2EB12CCA01AA2704
:1008800097FDA095BA2F89839A83AB83BC83ED81B2
:10089000FE81E215F305F4F50E94A506B5010E945C
:1008A000CE052C01812C912C841495040CF50E940A
:1008B000A5068C010E94A5067C010E94A50668E0A1
:1008C00070E00E94CE05C82EC701B5010E94CE057A
:1008D000482FC801B5010E94CE05E12C00E023E0BD
:1008E000682FC3010E9474019FEF891A990ADCCF17
:1008F00069817A818B819C810E940F054FEF5FEFA8
:1009000063E0C3010E94F302AD81BE811196BE83F4
:10091000AD83BDCF26960FB6F894DEBF0FBECDBF18
:10092000DF91CF911F910F91FF90EF90CF90BF90EB
:10093000AF909F908F907F906F905F904F903F907F
:100940002F9008951F920F920FB60F9211242F939C
:100950003F938F939F93AF93BF938091CF019091DB
:10096000D001A091D101B091D2013091CE0123E00C
:10097000230F2D3720F40196A11DB11D05C026E8D7
:10098000230F0296A11DB11D2093CE018093CF01AC
:100990009093D001A093D101B093D2018091D30163
:1009A0009091D401A091D501B091D6010196A11DDD
:1009B000B11D8093D3019093D401A093D501B0933E
:1009C000D601BF91AF919F918F913F912F910F9041
:1009D0000FBE0F901F9018953FB7F8948091D301E8
:1009E0009091D401A091D501B091D60126B5A89BD4
:1009F00005C02F3F19F00196A11DB11D3FBF66270D
:100A0000782F892F9A2F620F711D811D911D42E051
:100A1000660F771F881F991F4A95D1F708958F9207
:100A20009F92AF92BF92CF92DF92EF92FF926B01B3
:100A30007C010E94EC044B015C01C114D104E1046F
:100A4000F104F1F00E94CD050E94EC0468197909C7
:100A50008A099B09683E73408105910570F321E086
:100A6000C21AD108E108F10888EE880E83E0981ECA
:100A7000A11CB11CC114D104E104F10429F7DDCF9C
:100A8000FF90EF90DF90CF90BF90AF909F908F90AE
:100A90000895789484B5826084BD84B5816084BDF6
:100AA00085B5826085BD85B5816085BDEEE6F0E0E7
:100AB000808181608083E1E8F0E010828081826043
:100AC0008083808181608083E0E8F0E080818160C4
:100AD0008083E1EBF0E0808184608083E0EBF0E0F4
:100AE000808181608083EAE7F0E080818460808398
:100AF0008081826080838081816080838081806842
:100B000080831092C1000895CF93DF9390E0FC01A1
:100B1000E859FF4F2491FC01E458FF4F849188234A
:100B200049F190E0880F991FFC01E656FF4FA5910F
:100B3000B49180579F4FFC01C591D4919FB761112B
:100B400008C0F8948C91209582238C93888182230D
:100B50000AC0623051F4F8948C91322F309583237F
:100B60008C938881822B888304C0F8948C91822B8B
:100B70008C939FBFDF91CF91089508950E944905FE
:100B80000E94BD050E947E00C0E0D0E00E94A80047
:100B90002097E1F30E940000F9CF089597FB072EFC
:100BA00016F4009407D077FD09D00E940C0607FCCC
:100BB00005D03EF4909581959F4F0895709561956D
:100BC0007F4F0895052E97FB1EF400940E94F905AF
:100BD00057FD07D00E94200607FC03D04EF40C946A
:100BE000F90550954095309521953F4F4F4F5F4FF8
:100BF000089590958095709561957F4F8F4F9F4F89
:100C000008950E944806A59F900DB49F900DA49F43
:100C1000800D911D11240895AA1BBB1B51E107C033
:100C2000AA1FBB1FA617B70710F0A61BB70B881F7C
:100C3000991F5A95A9F780959095BC01CD0108950B
:100C4000A1E21A2EAA1BBB1BFD010DC0AA1FBB1FD0
:100C5000EE1FFF1FA217B307E407F50720F0A21B42
:100C6000B30BE40BF50B661F771F881F991F1A94AF
:100C700069F760957095809590959B01AC01BD01D9
:100C8000CF010895EE0FFF1F0590F491E02D099418
:100C9000A29FB001B39FC001A39F700D811D1124BD
:100CA000911DB29F700D811D1124911D08958F9289
:100CB0009F92AF92BF92CF92DF92EF92FF92CF932B
:100CC000DF93EC01688179818A819B8161157105CF
:100CD0008105910521F464E279ED8BE597E02DE142
:100CE00033EF41E050E00E94E20549015A019B01C7
:100CF000AC01A7EAB1E40E9401066B017C01ACEEF5
:100D0000B4EFA50194010E94B806C60ED71EE81ED6
:100D1000F91EF7FE06C081E0C81AD108E10880E894
:100D2000F80AC882D982EA82FB82C6019F77DF91E6
:100D3000CF91FF90EF90DF90CF90BF90AF909F90BA
:100D40008F9008950E945706089580E091E00E94D8
:100D500057060895A0E0B0E0809300019093010150
:100D6000A0930201B09303010895B7FF0C9401060C
:100D70000E940106821B930B089510E0C6EAD0E0A2
:100D800004C0FE010E9444062296C83AD107C9F762
:040D9000F894FFCF05
:080D9400010000000100000055
:00000001FF
