:100000000C9472000C949A000C949A000C949A0030
:100010000C949A000C949A000C949A000C94A000F2
:100020000C949A000C949A000C949A000C949A00E8
:100030000C949A000C949A000C949A000C949A00D8
:100040000C94F0050C949A000C949A000C949A006D
:100050000C949A000C949A000C949A000C949A00B8
:100060000C949A000C949A0005A84CCDB2D44EB9C9
:100070003836A9020C50B9918688083CA6AAAA2A4B
:10008000BE000000803F00000008000201000003E5
:100090000407000000000000000001020408102016
:1000A000408001020408102001020408102004040A
:1000B0000404040404040202020202020303030310
:1000C00003030000000023002600290000000000B8
:1000D000250028002B0000000000240027002A0033
:1000E000DF00E30011241FBECFEFD8E0DEBFCDBF9D
:1000F00024E0A8E0B1E001C01D92A731B207E1F70A
:1001000011E0A0E0B1E0E8EEF4E102C005900D924C
:10011000A830B107D9F710E0C2EED0E004C02297B2
:10012000FE010E94EE09C03ED107C9F70E945E079A
:100130000C94670A0C94000088E091E00C94F000A5
:100140001F920F920FB60F9211242F933F934F934C
:100150005F936F937F938F939F93AF93BF93EF932F
:10016000FF9388E091E00E944301FF91EF91BF91DE
:10017000AF919F918F917F916F915F914F913F913F
:100180002F910F900FBE0F901F90189588E091E06F
:100190000E94F60283E10E943407892B39F069E15D
:1001A00070E088E091E00E943A05F4CF44E650E028
:1001B0006AE070E088E091E00E94B904EBCF88E04B
:1001C00091E00C94E70088E091E00C94EF00FC01D2
:1001D000FD5F118210823296118210820895089577
:1001E0000F931F93CF93DF931F92CDB7DEB7082FE6
:1001F00012E061E0812F99830E94FB061F5F9981C5
:100200001D30B9F78FEF87B918B81092B00010926F
:10021000B1002091B00022602093B00084E0809370
:10022000B3001092B2002091B10026602093B1007B
:1002300020917000226020937000202F392FB90187
:1002400060547F4F80E090E040E050E0FC01E20F1E
:10025000F31FDF01A40FB51F1C924F5F5F4F4032A9
:100260005105B9F780549F4F811543E0940761F71A
:10027000205E3F4F2617370729F70F90DF91CF9168
:100280001F910F910895CF93DF93449A28B1207F57
:1002900028B920E030E0DC01BD5F76E0EC01CE5F04
:1002A000DC4F65B1A901440F551F440F551F4C7118
:1002B000637E462B45B96BB14D915C911197749F4C
:1002C000F001759FF00D1124E20FF31F45E0EE0FD2
:1002D000FF1F4A95E1F748815981E40FF51FE80FA8
:1002E000F91F4081E4E04E9FA00111246370642B4C
:1002F0006BB965B14D915C911197749FF001759F39
:10030000F00D1124E20FF31F55E0EE0FFF1F5A9579
:10031000E1F748815981E40FF51FE80FF91F40818B
:1003200042954695469543706C7F462B45B92F5FA5
:100330003F4F2630310509F0B4CF85B1837E85B9B2
:10034000449881E090E00C9002C0880F991F0A94B5
:10035000E2F788B98D919C911197019611969C9323
:100360008E9304975CF01D921C928881998101966E
:1003700099838883809714F019821882DF91CF9136
:10038000089580569F4F74E05FEFFC0130E0DF017D
:10039000A05AB109321714F01C9201C05C93DF011E
:1003A000A056B109341714F01C9201C05C93DF0110
:1003B0009097361714F01C9201C05C93DF01A0588F
:1003C000B109321714F45C9301C01C92DF01A054F0
:1003D000B109341714F45C9301C01C92361714F45D
:1003E000508301C010823F5F3196303281F67150E8
:1003F00080549F4F7111C9CF0895CF92EF920F9300
:10040000CF93DF9333E0E32FE41B432F421B242FD2
:1004100047FF02C021E0240F2595332727FD3095A3
:10042000417847FF03C041504E6F4F5F54E0459FF6
:10043000600D112441E050E001C0440F6A95EAF7D5
:10044000A42FB42FB09546E0E402F0011124B901C5
:100450006E0F7F1FC5E0660F771FCA95E1F7680F23
:10046000791FA9014E5F5F4F4E0F5F1FD5E0440F0C
:10047000551FDA95E1F7480F591F2C5F3F4F2E0F9C
:100480003F1FE5E0220F331FEA95E1F7280F391FE0
:1004900080E090E0C82FFB01E80FF91FD0818C1598
:1004A00014F4DA2B01C0DB23D083FA01E80FF91F23
:1004B000D081CE1514F4DA2B01C0DB23D083F901EF
:1004C000E80FF91FC0171CF4C081CA2B02C0C081FD
:1004D000CB23C083019680329105E1F6DF91CF9165
:1004E0000F91EF90CF900895CF92DF92EF92FF920D
:1004F0000F931F93CF93DF93E80133E0A32FA41B47
:10050000432F421B242F47FF02C021E0240F2595D3
:10051000332727FD3095417847FF03C041504E6F88
:100520004F5F54E0459F600D1124E1E0F0E002C010
:10053000EE0FFF1F6A95E2F746E0A402D0011124F6
:10054000BD01620F731F15E0660F771F1A95E1F763
:10055000680F791FA9014E5F5F4F4A0F5B1F05E0CF
:10056000440F551F0A95E1F7480F591F2C5F3F4F65
:100570002A0F3B1FA5E0220F331FAA95E1F7280F92
:10058000391F80E090E0DB01A80FB91FAC91B0E00B
:10059000AE23BF23AB2B21F0D6011C911F5F1C9310
:1005A000DA01A80FB91FAC91B0E0AE23BF23AB2B8B
:1005B00021F0D7011C911F5F1C93D901A80FB91F0F
:1005C000AC91B0E0AE23BF23AB2B19F0A881AF5F95
:1005D000A883019680329105B1F6DF91CF911F91EA
:1005E0000F91FF90EF90DF90CF900895BC017D5F59
:1005F00020E030E040E050E0F901E80FF91FDF01B2
:10060000A40FB51F1C924F5F5F4F40325105B9F7E1
:10061000205E3F4F203C310569F780549F4F86177D
:10062000970731F7089573E0E72FE41B721B372F0C
:10063000317837FF03C031503E6F3F5F24E0329F77
:10064000600D112441E050E0062E01C0440F0A94D1
:10065000EAF7B42FB09546E0E40290011124572F39
:1006600077FD5F5F5595250F311D57FD3A9545E0A4
:10067000220F331F4A95E1F7280F391F40E050E061
:10068000BA01620F731F80E090E0FB01E80FF91FD1
:10069000A081AB23A083019680329105B1F7405C25
:1006A0005F4F403C510561F708953F924F925F9232
:1006B0006F927F928F929F92AF92BF92CF92DF9272
:1006C000EF92FF920F931F93CF93DF93CDB7DEB7D7
:1006D000C25CD1090FB6F894DEBF0FBECDBF5C017E
:1006E0004A01613009F07AC0612CA2E03A2E712CE7
:1006F000512CCE53DF4F1882C25CD040CF53DF4F16
:100700001882C15CD040198244244394450C81E096
:100710008816910441F593E0591609F1632D651986
:10072000FE0131966F01CE018F539F4F7C018E01E8
:100730000E531F4F262D472DC5010E94740263E002
:100740006519C980CF53DF4FE880C15CD040CE53DC
:10075000DF4F0881C25CD040262D472D29C0262DB1
:10076000472D60E02CC09FEF8916990659F5E3E00C
:100770005E1611F1CE0101966C01FE01EF53FF4FA1
:100780007F018E010E531F4F262D472D642DC5016D
:100790000E947402C980CF53DF4FE880C15CD04013
:1007A000CE53DF4F0881C25CD040262D472D652DEA
:1007B000C5010E94FD0106C0262D472D63E0C5013D
:1007C0000E941303542CF4E04F1293CF73947F12C2
:1007D0008FCF639484E068128ACFB2C06230C1F5D3
:1007E0009E012F5F3F4F80ECF90111928A95E9F746
:1007F000D501C501805C9D4F10E0782E692E00E385
:10080000BD0160547F4FAC01405C5109F1E08F168F
:10081000910441F4133021F4F901A72DB62D0DC038
:10082000FB010BC0EFEF8E169E0661F4133019F436
:10083000F901D50102C0FA01DC01802F01900D926F
:100840008A95E1F71F5FDB01CA011430C9F678C051
:10085000633009F075C0612CF2E03F2E712C512CF1
:10086000CE53DF4F1882C25CD040CF53DF4F188287
:10087000C15CD040198244244394450CF1E08F16AA
:10088000910421F583E05816F9F0232D2519FE0176
:1008900031966F01CE018F539F4F7C018E010E5315
:1008A0001F4F462D672DC5010E94740223E02519B4
:1008B000C980CF53DF4FE880C15CD040CE53DF4FBB
:1008C0000881C25CD04025C020E02AC09FEF891675
:1008D000990659F5E3E05E1611F1CE0101966C011F
:1008E000FE01EF53FF4F7F018E010E531F4F242D4A
:1008F000462D672DC5010E947402C980CF53DF4F7A
:10090000E880C15CD040CE53DF4F0881C25CD0404C
:10091000252D462D672DC5010E94FD0106C023E04F
:10092000462D672DC5010E941303542CF4E04F128D
:1009300097CF73947F1293CF639484E068128ECF25
:10094000CE53DF4F0FB6F894DEBF0FBECDBFDF91A1
:10095000CF911F910F91FF90EF90DF90CF90BF90BC
:10096000AF909F908F907F906F905F904F903F904F
:1009700008952F923F924F925F926F927F928F9243
:100980009F92AF92BF92CF92EF92FF920F931F93DD
:10099000CF93DF9300D000D000D0CDB7DEB73C01BD
:1009A0001B011E821D82B4E0AB2EB12CCA01AA2706
:1009B00097FDA095BA2F89839A83AB83BC83ED8181
:1009C000FE81E215F305F4F50E944F0AB5010E947D
:1009D00078092C01812C912C841495040CF50E942B
:1009E0004F0A8C010E944F0A7C010E944F0A68E066
:1009F00070E00E947809C82EC701B5010E947809ED
:100A0000482FC801B5010E947809E12C00E023E0DD
:100A1000682FC3010E94FD019FEF891A990ADCCF5C
:100A200069817A818B819C810E945D064FEF5FEF27
:100A300063E0C3010E945503AD81BE811196BE8360
:100A4000AD83BDCF26960FB6F894DEBF0FBECDBFE7
:100A5000DF91CF911F910F91FF90EF90CF90BF90BA
:100A6000AF909F908F907F906F905F904F903F904E
:100A70002F9008952F923F924F925F926F927F92A4
:100A80008F929F92AF92BF92CF92DF92EF92FF929E
:100A90000F931F93CF93DF9300D000D0CDB7DEB775
:100AA0008C01212C312C4B01AA2497FCA094BA2C48
:100AB000B101882777FD8095982F0E9406082BEDBD
:100AC0003FE049EC50E40E94F00820E030E040E8CC
:100AD0005CE30E94F0086B017C0120E030E0A9019A
:100AE0000E946F070E94530923EC35EF48EA51E456
:100AF0000E94F0082DEC3CEC4CE451E40E946F079E
:100B00000E94D30769837A838B839C8322E93AE02E
:100B100046E050E4C701B6010E946F070E945309E6
:100B200023EC35EF48EA51E40E94F0082DEC3CEC50
:100B30004CE451E40E946F070E94D3072B013C0153
:100B400022E93AE046E850E4C701B6010E946F0787
:100B50000E94530923EC35EF48EA51E40E94F00863
:100B60002DEC3CEC4CE451E40E946F070E94D3074B
:100B70006B017C01C501B4010E945D069601D7FEA0
:100B800002C020E030E0A20157FE02C040E050E089
:100B900069817A8177FF02C060E070E0C8010E943D
:100BA000C1018FEF281A380AE0E42E16310409F04B
:100BB0007FCF0F900F900F900F90DF91CF911F91EB
:100BC0000F91FF90EF90DF90CF90BF90AF909F90EC
:100BD0008F907F906F905F904F903F902F900895EF
:100BE0001F920F920FB60F9211242F933F938F9362
:100BF0009F93AF93BF9380910F0490911004A091A5
:100C00001104B091120430910E0423E0230F2D370C
:100C100020F40196A11DB11D05C026E8230F029600
:100C2000A11DB11D20930E0480930F049093100416
:100C3000A0931104B09312048091130490911404B2
:100C4000A0911504B09116040196A11DB11D8093C9
:100C5000130490931404A0931504B0931604BF9149
:100C6000AF919F918F913F912F910F900FBE0F9059
:100C70001F9018953FB7F894809113049091140435
:100C8000A0911504B091160426B5A89B05C02F3F6E
:100C900019F00196A11DB11D3FBF6627782F892F3E
:100CA0009A2F620F711D811D911D42E0660F771F03
:100CB000881F991F4A95D1F708958F929F92AF92FE
:100CC000BF92CF92DF92EF92FF926B017C010E9464
:100CD0003A064B015C01C114D104E104F104F1F0C6
:100CE0000E946D070E943A06681979098A099B09D2
:100CF000683E73408105910570F321E0C21AD10866
:100D0000E108F10888EE880E83E0981EA11CB11C52
:100D1000C114D104E104F10429F7DDCFFF90EF9075
:100D2000DF90CF90BF90AF909F908F900895789470
:100D300084B5826084BD84B5816084BD85B58260E0
:100D400085BD85B5816085BDEEE6F0E0808181607E
:100D50008083E1E8F0E0108280818260808380817E
:100D600081608083E0E8F0E0808181608083E1EB56
:100D7000F0E0808184608083E0EBF0E0808181603E
:100D80008083EAE7F0E080818460808380818260F4
:100D900080838081816080838081806880831092DD
:100DA000C1000895833081F028F4813099F08230B9
:100DB000A1F008958730A9F08830B9F08430D1F4DB
:100DC000809180008F7D03C0809180008F77809319
:100DD0008000089584B58F7702C084B58F7D84BD6F
:100DE00008958091B0008F7703C08091B0008F7D0F
:100DF0008093B0000895CF93DF9390E0FC01E65616
:100E0000FF4F2491FC01E255FF4F8491882349F163
:100E100090E0880F991FFC01EA52FF4FA591B49111
:100E200084539F4FFC01C591D4919FB7611108C0B5
:100E3000F8948C91209582238C93888182230AC018
:100E4000623051F4F8948C91322F309583238C9337
:100E50008881822B888304C0F8948C91822B8C9398
:100E60009FBFDF91CF910895CF93DF93282F30E07C
:100E7000F901EA57FF4F8491F901E656FF4FD491EB
:100E8000F901E255FF4FC491CC2391F081110E94EA
:100E9000D206EC2FF0E0EE0FFF1FEE53FF4FA591AF
:100EA000B4912C912D2381E090E021F480E002C0E8
:100EB00080E090E0DF91CF91089508950E94970619
:100EC0000E945D070E949C00C0E0D0E00E94C60026
:100ED0002097E1F30E940000F9CF08955058BB27F6
:100EE000AA270ED032C1FBD030F000D120F031F46F
:100EF0009F3F11F41EF4CBC00EF4E095E7FBC1C098
:100F0000E92F45D180F3BA17620773078407950765
:100F100018F071F49EF55DC10EF4E0950B2EBA2F1A
:100F2000A02D0B01B90190010C01CA01A0011124EF
:100F3000FF27591B99F0593F50F4503E68F11A169B
:100F4000F040A22F232F342F4427585FF3CF46952C
:100F500037952795A795F0405395C9F77EF41F164E
:100F6000BA0B620B730B840BBAF09150A1F0FF0F18
:100F7000BB1F661F771F881FC2F70EC0BA0F621F04
:100F8000731F841F48F4879577956795B795F795F4
:100F90009E3F08F0B3CF9395880F08F09927EE0F86
:100FA00097958795089504D06894B11113C1089559
:100FB000F6D088F09F5790F0B92F9927B751A0F03D
:100FC000D1F0660F771F881F991F1AF0BA95C9F7DD
:100FD00012C0B13081F0FDD0B1E00895FAC0672FA2
:100FE000782F8827B85F39F0B93FCCF3869577958D
:100FF0006795B395D9F73EF4909580957095619576
:101000007F4F8F4F9F4F0895E89409C097FB3EF4A0
:1010100090958095709561957F4F8F4F9F4F992345
:10102000A9F0F92F96E9BB279395F69587957795C3
:101030006795B795F111F8CFFAF4BB0F11F460FF83
:101040001BC06F5F7F4F8F4F9F4F16C0882311F0DB
:1010500096E911C0772321F09EE8872F762F05C0EF
:10106000662371F096E8862F70E060E02AF09A958A
:10107000660F771F881FDAF7880F9695879597F97F
:10108000089597F99F6780E870E060E008959FEF0A
:1010900080EC0895DF93CF931F930F93FF92EF920D
:1010A000DF927B018C01689405C0DA2EEF01A4D099
:1010B000FE01E894A5912591359145915591AEF3A6
:1010C000EF011EDFFE019701A801DA9479F7DF90A6
:1010D000EF90FF900F911F91CF91DF910895002421
:1010E0000A941616170618060906089500240A948D
:1010F00012161306140605060895C9CF50D0E8F35A
:10110000E894E0E0BB279F57F0F02AED3FE049EC80
:1011100006C0EE0FBB0F661F771F881F28F0B23A7C
:1011200062077307840728F0B25A620B730B840BB3
:10113000E3959A9572F7803830F49A95BB0F661F45
:10114000771F881FD2F79048B6C0092E0394000C71
:1011500011F4882352F0BB0F40F4BF2B11F460FF51
:1011600004C06F5F7F4F8F4F9F4F0895EF93E0FF55
:1011700006C0A2EA2AED3FE049EC5FEBC1DEE5DF05
:101180000F90039401FC9058E8E6F0E0A0C057FDF2
:101190009058440F551F59F05F3F71F04795880FE5
:1011A00097FB991F61F09F3F79F08795089512167C
:1011B00013061406551FF2CF4695F1DF08C0161628
:1011C00017061806991FF1CF8695710561050894D9
:1011D0000895E894BB2766277727CB0197F90895F0
:1011E0000BD0B3CF7CDF28F081DF18F0952309F016
:1011F00048CF4DCF1124EECFCADFA0F3959FD1F396
:10120000950F50E0551F629FF001729FBB27F00DB4
:10121000B11D639FAA27F00DB11DAA1F649F662709
:10122000B00DA11D661F829F2227B00DA11D621F58
:10123000739FB00DA11D621F839FA00D611D221F12
:10124000749F3327A00D611D231F849F600D211DF6
:10125000822F762F6A2F11249F5750408AF0E1F099
:1012600088234AF0EE0FFF1FBB1F661F771F881FE2
:1012700091505040A9F79E3F510570F002CFAACF80
:101280005F3FECF3983EDCF3869577956795B795CD
:10129000F795E7959F5FC1F7FE2B880F911D9695F7
:1012A000879597F908959F9329DF0F9007FCEE5FCC
:1012B0005DCF9F3F31F0915020F4879577956795EA
:1012C000B795880F911D9695879597F908959F93E7
:1012D0008F937F936F93FF93EF939B01AC0180DF1C
:1012E000EF91FF91D7DE2F913F914F915F9178CF92
:1012F00097FB072E16F4009407D077FD09D00E94C3
:10130000B60907FC05D03EF4909581959F4F08954E
:10131000709561957F4F0895052E97FB1EF40094FC
:101320000E94A30957FD07D00E94CA0907FC03D0F9
:101330004EF40C94A30950954095309521953F4F5C
:101340004F4F5F4F089590958095709561957F4FB1
:101350008F4F9F4F08950E94F209A59F900DB49F53
:10136000900DA49F800D911D11240895AA1BBB1BF5
:1013700051E107C0AA1FBB1FA617B70710F0A61B95
:10138000B70B881F991F5A95A9F780959095BC01B6
:10139000CD010895A1E21A2EAA1BBB1BFD010DC0B1
:1013A000AA1FBB1FEE1FFF1FA217B307E407F50715
:1013B00020F0A21BB30BE40BF50B661F771F881FF1
:1013C000991F1A9469F760957095809590959B0187
:1013D000AC01BD01CF010895EE0FFF1F0590F49100
:1013E000E02D0994A29FB001B39FC001A39F700D8F
:1013F000811D1124911DB29F700D811D1124911D1D
:1014000008958F929F92AF92BF92CF92DF92EF9208
:10141000FF92CF93DF93EC01688179818A819B8170
:10142000611571058105910521F464E279ED8BE583
:1014300097E02DE133EF41E050E00E948C09490133
:101440005A019B01AC01A7EAB1E40E94AB096B0110
:101450007C01ACEEB4EFA50194010E94620AC60EB5
:10146000D71EE81EF91EF7FE06C081E0C81AD10893
:10147000E10880E8F80AC882D982EA82FB82C601C4
:101480009F77DF91CF91FF90EF90DF90CF90BF904B
:10149000AF909F908F9008950E94010A089580E078
:1014A00091E00E94010A0895A0E0B0E0809300015D
:1014B00090930101A0930201B09303010895B7FF37
:1014C0000C94AB090E94AB09821B930B089510E0AA
:1014D000C2EED0E004C0FE010E94EE092296C43E96
:0814E000D107C9F7F894FFCF12
:0814E8000100000001000000FA
:00000001FF
