:100000000C9453000C947B000C947B000C947B00AC
:100010000C947B000C947B000C947B000C942D01C1
:100020000C947B000C947B000C947B000C947B0064
:100030000C947B000C947B000C947B000C947B0054
:100040000C94C0020C947B000C942C050C945E055F
:100050000C947B000C947B000C947B000C947B0034
:100060000C947B000C947B0001020408102040805B
:1000700001020408102001020408102004040404F2
:100080000404040402020202020203030303030342
:1000900000000000250028002B00000000002400C4
:1000A00027002A008E0511241FBECFEFD8E0DEBF47
:1000B000CDBF11E0A0E0B1E0EEE5FDE002C00590AB
:1000C0000D92AE38B107D9F722E0AEE8B1E001C039
:1000D0001D92AF38B207E1F710E0C6EAD0E004C0E5
:1000E0002297FE010E94A906C43AD107C9F70E94CF
:1000F000D2050C94AD060C9400000E940A03672BF5
:10010000682B692B41F40E940A0362307105810556
:10011000910508F476C00E940A036093AA017093C7
:10012000AB018093AC019093AD010091AE011091B1
:10013000AF012091B0013091B101601771078207C2
:10014000930740F46093AE017093AF018093B001C8
:100150009093B1010091AE011091AF012091B001D7
:100160003091B1016B017C01C01AD10AE20AF30A95
:10017000970186010A3F11052105310508F441C0A8
:100180006093AE017093AF018093B0019093B10181
:1001900082EB91E00E94240260E071E08091E30133
:1001A0009091E4010E941F0668E071E08091E301F4
:1001B0009091E4010E941F060E940A03AB01BC015A
:1001C0002AE030E08091E3019091E4010E94700602
:1001D0006AE071E08091E3019091E4010E941F06C2
:1001E00062E070E080E090E00E9439036AE070E035
:1001F00080E090E00E94390361E082EB91E00E9490
:10020000670216E00FEF22E931E01C9FA0011D9F5D
:10021000500D11244E565E4F80E090E0F901E80F3A
:10022000F91F1082FA01E80FF91F0083019686304A
:100230009105A1F72A5F3F4F81E02A3A380761F71D
:100240002196C430D10514F0C0E0D0E068EE73E030
:1002500080E090E00E943903D6CF1F920F920FB634
:100260000F9211242F933F934F938F939F93EF936C
:10027000FF9380919001909191010196909391014B
:100280008093900115B82B9A80E090E046E028B169
:10029000287F282B28B920918E0130918F01429F11
:1002A000F001439FF00D1124E80FF91FEE56FE4FA9
:1002B00020812BB901968630910549F72B9821E0D2
:1002C00028B980918E0190918F01009711F425B982
:1002D0000EC08130910511F482E008C08230910592
:1002E00011F484E003C0039711F488E085B980918C
:1002F0008E0190918F010196843091052CF490939A
:100300008F0180938E0104C010928F0110928E0194
:10031000FF91EF919F918F914F913F912F910F906E
:100320000FBE0F901F901895CF93DF93C0E061E050
:100330008C2F0E94AE03CF5FCD30C9F78FEF87B906
:1003400018B81092B0001092B1008091B000826095
:100350008093B00084E18093B3001092B20080914A
:10036000B10086608093B1008091700082608093BC
:10037000700082E991E0C8E9D1E04EE951E0E4EA99
:10038000F1E0DC011D92CD011992DA011D92AD015F
:100390001192B1E0EA3AFB07A1F7DF91CF910895FE
:1003A00040ED57E060E070E082EB91E00E942702B0
:1003B00020E032EC41E050E062EF71E082EB91E04E
:1003C0000E943A0282EB91E00E94240263E171E014
:1003D0008091E3019091E4010E941F066AE070E0C1
:1003E00080E090E00E94390341E060E082EB91E020
:1003F0000E94A5020C9494010F931F93CF93DF9357
:10040000EC01662359F00E940A0369837A838B8387
:100410009C83DF91CF911F910F9108950E940A0351
:1004200009811A812B813C81601B710B820B930B1C
:10043000613271058105910530F763E070E080E07D
:1004400090E00E943903EACF60E00C94FC01FC01CB
:1004500013AA14AA15AA16AA118212821382148250
:10046000411551056105710521F0CB01BA010C94CC
:1004700039030895FB01BA01A901DC01D296FC936E
:10048000EE93D19726E0CF010C94CA041F93CF932B
:10049000DF93EC01162F65E271E089A99AA90E9409
:1004A0001F064AE050E0612F89A99AA90E947D06A3
:1004B0006CE271E089A99AA90E941F0662E370E0CC
:1004C00080E090E0DF91CF911F910C9439031F934E
:1004D000CF93DF93EC01162F8D81882389F189A9B1
:1004E0009AA9DC01ED91FC910480F581E02D09953C
:1004F000892BA9F307C02637310519F128353105B5
:1005000009F41D8289A99AA9DC01ED91FC9104806E
:10051000F581E02D09951816190694F489A99AA970
:10052000DC01ED91FC910680F781E02D09959C019D
:10053000332723363105F9F6612FCE010E9446029A
:1005400083E6DF91CF911F9108950F931F93CF936F
:10055000DF931F92CDB7DEB78C01662349F081E0AF
:10056000F801858360E0C80149830E9467024981E0
:10057000F80145830F90DF91CF911F910F9108955E
:100580001F920F920FB60F9211242F933F938F93C8
:100590009F93AF93BF938091EA019091EB01A0915B
:1005A000EC01B091ED013091E90123E0230F2D37EB
:1005B00020F40196A11DB11D05C026E8230F029667
:1005C000A11DB11D2093E9018093EA019093EB01F5
:1005D000A093EC01B093ED018091EE019091EF01B9
:1005E000A091F001B091F1010196A11DB11D809380
:1005F000EE019093EF01A093F001B093F101BF9150
:10060000AF919F918F913F912F910F900FBE0F90BF
:100610001F9018952FB7F8946091EA017091EB0143
:100620008091EC019091ED012FBF08953FB7F894B0
:100630008091EE019091EF01A091F001B091F10154
:1006400026B5A89B05C02F3F19F00196A11DB11D2D
:100650003FBF6627782F892F9A2F620F711D811D4A
:10066000911D42E0660F771F881F991F4A95D1F7A9
:1006700008958F929F92AF92BF92CF92DF92EF92A6
:10068000FF926B017C010E9416034B015C01C114B7
:10069000D104E104F104F1F00E9484060E941603E3
:1006A000681979098A099B09683E7340810591059B
:1006B00070F321E0C21AD108E108F10888EE880E33
:1006C00083E0981EA11CB11CC114D104E104F10403
:1006D00029F7DDCFFF90EF90DF90CF90BF90AF90E4
:1006E0009F908F900895789484B5826084BD84B57E
:1006F000816084BD85B5826085BD85B5816085BD1D
:10070000EEE6F0E0808181608083E1E8F0E0108235
:10071000808182608083808181608083E0E8F0E076
:10072000808181608083E1EBF0E080818460808360
:10073000E0EBF0E0808181608083EAE7F0E0808197
:1007400084608083808182608083808181608083F7
:100750008081806880831092C1000895CF93DF93D9
:1007600090E0FC01E859FF4F2491FC01E458FF4F51
:100770008491882349F190E0880F991FFC01E65687
:10078000FF4FA591B49180579F4FFC01C591D49123
:100790009FB7611108C0F8948C91209582238C93A7
:1007A000888182230AC0623051F4F8948C91322FF0
:1007B000309583238C938881822B888304C0F8949E
:1007C0008C91822B8C939FBFDF91CF910895FC0178
:1007D000818D228D90E0805C9F4F821B91098F73E9
:1007E00099270895FC01918D828D981731F0828DA3
:1007F000E80FF11D858D90E008958FEF9FEF08952C
:10080000FC01918D828D981761F0828DDF01A80F18
:10081000B11D5D968C91928D9F5F9F73928F90E03A
:1008200008958FEF9FEF089584E895E0892B49F0B4
:1008300080E090E0892B29F00E94840581110C94BE
:1008400000000895FC01848DDF01A80FB11DA35A9B
:10085000BF4F2C91848D90E001968F739927848FE0
:10086000A689B7892C93A089B1898C9180648C93D7
:10087000938D848D981306C00288F389E02D8081C2
:100880008F7D80830895CF93DF93EC01888D88233B
:10089000C9F0EA89FB89808185FD05C0A889B989ED
:1008A0008C9186FD0FC00FB607FCF5CF808185FFC8
:1008B000F2CFA889B9898C9185FFEDCFCE010E9436
:1008C0002204E7CFDF91CF910895CF92DF92FF927C
:1008D0000F931F93CF93DF931F92CDB7DEB76C01B9
:1008E00081E0D60158968C9358975B969C915B97C4
:1008F0005C968C915C97981307C05096ED91FC9193
:100900005197808185FD2EC0F601038D10E00F5FA9
:100910001F4F0F731127F02EF601848DF81211C0AE
:100920000FB607FCF9CFD6015096ED91FC91519787
:10093000808185FFF1CFC60169830E94220469810D
:10094000EBCF838DE80FF11DE35AFF4F6083D60193
:100950005B960C935B975296ED91FC915397808137
:1009600080620CC0D6015696ED91FC91579760833A
:100970005096ED91FC91519780818064808381E055
:1009800090E00F90DF91CF911F910F91FF90DF903A
:10099000CF900895BF92CF92DF92EF92FF92CF93C4
:1009A000DF93EC016A017B01B22EE889F98982E0CC
:1009B0008083411581EE580761057105A1F060E063
:1009C00079E08DE390E0A70196010E948506215011
:1009D00031094109510956954795379527952115B4
:1009E00080E1380798F0E889F989108260E874E8B6
:1009F0008EE190E0A70196010E9485062150310901
:100A0000410951095695479537952795EC85FD8500
:100A10003083EE85FF852083188EEC89FD89B082B6
:100A2000EA89FB89808180618083EA89FB898081F2
:100A300088608083EA89FB89808180688083EA8975
:100A4000FB8980818F7D8083DF91CF91FF90EF9034
:100A5000DF90CF90BF9008951F920F920FB60F9224
:100A600011242F938F939F93EF93FF93E0910202B2
:100A7000F09103028081E0910802F091090282FD69
:100A800012C0908180910B028F5F8F7320910C02B6
:100A9000821751F0E0910B02F0E0EE50FE4F958F7F
:100AA00080930B0201C08081FF91EF919F918F9104
:100AB0002F910F900FBE0F901F9018951F920F92BD
:100AC0000FB60F9211242F933F934F935F936F9321
:100AD0007F938F939F93AF93BF93EF93FF9382EF97
:100AE00091E00E942204FF91EF91BF91AF919F91FD
:100AF0008F917F916F915F914F913F912F910F90C7
:100B00000FBE0F901F90189582EF91E00E94E703AF
:100B100021E0892B09F420E0822F08951092F5013D
:100B20001092F40188EE93E0A0E0B0E08093F6012B
:100B30009093F701A093F801B093F90181E891E057
:100B40009093F3018093F20185EC90E09093FF0184
:100B50008093FE0184EC90E0909301028093000268
:100B600080EC90E0909303028093020281EC90E08D
:100B7000909305028093040282EC90E09093070228
:100B80008093060286EC90E090930902809308021D
:100B900010920B0210920C0210920D0210920E0293
:100BA000089508950E9473030E94D1050E94D00108
:100BB000C4E1D4E00E947D002097E1F30E94140478
:100BC000F9CFCF92DF92EF92FF920F931F93CF93C3
:100BD000DF937C016A01EB0100E010E00C151D05BC
:100BE00071F06991D701ED91FC910190F081E02DB8
:100BF000C7010995892B19F00F5F1F4FEFCFC8016F
:100C0000DF91CF911F910F91FF90EF90DF90CF90E8
:100C100008956115710581F0DB010D900020E9F761
:100C2000AD0141505109461B570BDC01ED91FC9180
:100C30000280F381E02D099480E090E008950C9407
:100C400009068F929F92AF92BF92DF92EF92FF922E
:100C50000F931F93CF93DF93CDB7DEB7A1970FB656
:100C6000F894DEBF0FBECDBF7C01F42FD52ECB0193
:100C700019A2223008F42AE08E010F5D1F4F822E48
:100C8000912CA12CB12C6F2F7D2DA50194010E94D8
:100C90008506F22FD32ECA01015011096A3014F4CF
:100CA000E0E301C0E7E3E60FD801EC93232B242B0C
:100CB000252B49F7B801C7010E940906A1960FB676
:100CC000F894DEBF0FBECDBFDF91CF911F910F9182
:100CD000FF90EF90DF90BF90AF909F908F9008951E
:100CE0002115310541F4DC01ED91FC910190F08179
:100CF000E02D642F09940C9421069A01462F50E0B0
:100D000060E070E00C9470060895A1E21A2EAA1B10
:100D1000BB1BFD010DC0AA1FBB1FEE1FFF1FA217AB
:100D2000B307E407F50720F0A21BB30BE40BF50BA8
:100D3000661F771F881F991F1A9469F76095709531
:100D4000809590959B01AC01BD01CF010895EE0FF8
:0E0D5000FF1F0590F491E02D0994F894FFCF59
:100D5E00564D4450455F31007C005F564D44504522
:100D6E000D0A00564D4450565F317C315F564D444E
:100D7E0050560D0A00564D4450435F005F564D4489
:100D8E0050430D0A004572726F723A2041747465B9
:100D9E006D707420746F20736574206120726561AC
:100DAE00642D6F6E6C79207661726961626C65205C
:100DBE006F7220646174612074797065206E6F7437
:100DCE0020737570706F727465640D0A00000000F8
:0E0DDE00006504E105E7030004F2034304008E
:00000001FF
